:020000040000FA
:1000000080080020F50000000F0100001101000031
:1000100000000000000000000000000000000000E0
:1000200000000000000000000000000013010000BC
:100030000000000000000000150100001701000092
:100040001901000019010000190100001901000048
:10005000190100000000000051010000190100001A
:100060008D030000A5030000190100001901000024
:100070001901000019010000190100001901000018
:100080001901000019010000190100001901000008
:1000900019010000190100001901000019010000F8
:1000A000190100001901000000000000000000001C
:1000B0000000000000000000000000000000000040
:1000C0000348854600F032F80048004781060000EA
:1000D00080080020401E00BF00BF00BF00BF00BF5F
:1000E00000BF00BF00BF00BF00BF00BF00BFF1D115
:1000F000704700000321094802680A43026008486B
:1001000002680A4302600748804707480047FEE745
:10011000FEE7FEE7FEE7FEE7FEE7000024050040FD
:100120005405004055030000C1000000064C0125A5
:10013000064E05E0E36807CC2B430C3C984710348F
:10014000B442F7D3FFF7C0FF1C1300003C130000BC
:10015000F0B587B0002600200690FF200130059002
:100160000125002416E0059800F088FF00280BD038
:1001700000BF564840682840002805D0059800F088
:1001800075FF3046284306466D000598001D80B275
:100190000590641C042CE6D3FF207D3000F06EFF38
:1001A00000280AD0FF207D3000F060FF0120C0074A
:1001B000064300BF4648006906903007000F00283C
:1001C0002AD00125002425E02846304000281FD0F1
:1001D00000BF4048512109014018A10040581F218B
:1001E00009020840000A049000BF3A485121090161
:1001F0004018A1004058032109040840000C039056
:10020000204600F02FF9074603990498B84700BF2D
:100210006D00641C042CD7D3F00FC007002852D007
:1002200000244EE02C480057401C002848D02A48A3
:10023000005D0490C021049888430746384600F0CA
:1002400055F9029000F00EF903900398002836D07B
:10025000C02104980840801102900120B840054652
:1002600000BF05200007072109024018B9004058C7
:10027000032109040840000C01900698284000283A
:1002800002D00198022806D006982840002815D1EF
:100290000198032812D1029803280BD10198022853
:1002A00001D1032000E0022000903846009900F0C0
:1002B0009BFE00BF3846039A0299904700BF00BFDB
:1002C000641C002CAED007B0F0BD000000630040FD
:1002D00000050050006000406000002010B50028BC
:1002E00019DA1A4A03071B0F083B9B089B00D258D8
:1002F0008307DC0EFF23A3409A438B071B0E840762
:10030000E40EA3401A43114B0407240F083CA40831
:10031000A4001A5118E00E4A03231B02D2188308C6
:100320009B00D2588307DC0EFF23A3409A438B0720
:100330001B0E8407E40EA3401A43054B032424023A
:100340001B198408A4001A5110BD00001CED00E028
:1003500000E100E010B500F051F9002805D0074891
:1003600007494860C8130749886100F02BF9002845
:1003700002D001200449886010BD0000DFFF07C0E3
:1003800000050040006C00400006004010B504224B
:100390000249034800F0C8F810BD000064000020C6
:1003A0000080004010B504220249034800F0BCF868
:1003B00010BD0000700000200090004002E008C85E
:1003C000121F08C1002AFAD170477047002001E0CF
:1003D00001C1121F002AFBD17047000000BF00BFFF
:1003E00000BF00BF00BFBFF34F8F00BF00BF00BF03
:1003F00006480749C86000BF00BF00BFBFF34F8F6A
:1004000000BF00BF00BF00BF00BFFDE70400FA054A
:1004100000ED00E00EB5044600200090019002902F
:1004200002946A4600210148FFF7D8FF014000000E
:1004300001460F2000040840002801D10120704728
:100440000020FCE70021C9438200054B9950042895
:1004500004DB0B46011F024A34325354704700003C
:100460002C00002001468800014A10587047000007
:100470002C000020F7B585B00B460020C043049047
:10048000002A01D0002000E004200390002A01D0BF
:10049000042000E00520029003991EE08800124C21
:1004A0002058401C002817D10846059C0093019253
:1004B00046B20D4D14352E5585000B4E009B7351E1
:1004C000019A002A04D166B2051F074F34377E55C2
:1004D00000BF48B2049003E0491C02988142DDD37A
:1004E00000BF049808B0F0BD2C0000200146014870
:1004F000405670474000002072B603480068401C18
:10050000014908607047000010000020054800689D
:10051000401E0449086008460068002800D162B601
:100520007047000010000020F7B582B004460E4668
:10053000002728E0384600F0B3FD0546384600F0B5
:10054000B5FD0190204629464258002A01D00122DB
:1005500000E00022002A14D001980321090261184A
:1005600049680140002901D0012100E00021002953
:1005700007D02946204600F09EFD28463268716863
:100580009047781CC7B204988742D3DB05B0F0BD12
:1005900010B50446204600F011FC044909680840E3
:1005A000002801D0012010BD0020FCE70800002039
:1005B00070B50446204600F001FC0546FFF738FF01
:1005C00070BD00000C48008CC0B2012812D10A484E
:1005D000808C0007000F00280CD10748806AF021AA
:1005E0000840402806D10448C06A0840002801D1CC
:1005F000012070470020FCE7C00F00F01948008C74
:10060000C0B201282CD11748808C0007000F0028A9
:1006100026D11448806AF0210840002806D11148EC
:10062000C06A0840002801D1012070470D48806A47
:10063000F0210840102806D10A48C06A0840002866
:1006400001D10120F1E70748806AF02108403028F5
:1006500006D10448C06A0840002801D10120E4E71F
:100660000020E2E7C00F00F010B50446204600F07D
:10067000A5FB80B2002801D0012010BD0020FCE7BE
:100680001FB500BF1125132600BF03E0284600F068
:1006900093FC6D1CB542F9D900BF112000F0D0FCCD
:1006A000132000F0CDFC122000F0CAFC00BF00F0C7
:1006B00089FB044600BF2546002D04D000BF284614
:1006C000FFF7A8FE00BF00BF00F01AFA044600BF03
:1006D0002546002D04D000BF2846FFF79BFE00BF33
:1006E00000BF00BF01202649087204204872002084
:1006F0000861C860234903C9039102902149083168
:1007000003C90191009002A81D490860684648602D
:1007100000BF084600F03CF81949086800F062F88C
:100720001749486800F08CF8154800F00FFD144890
:1007300000F082FD1249486800F0CEFD10490868BB
:1007400000F0CAFD0025284600F08AFA00BF0C48D8
:10075000057A0121284600F0F5F800BF0EE01120CF
:1007600001218140084AD16000BF322000F0AEF87C
:10077000112000F065FC054800F0A8F8EFE7000044
:1007800014000020F0120000000500509E07000039
:10079000F8B5054600BF2646002E04D000BF3046FF
:1007A000FFF738FE00BF00BF0121684641700170AD
:1007B000C17000218170287A0022694600F026F974
:1007C000044600BF2646002E04D000BF3046FFF787
:1007D00021FE00BF00BF042000F0EEFB042000F06B
:1007E0002FFCF8BDF1B582B00A240026134A00217F
:1007F000029800F05DFB064600BF3746002F04D08C
:1008000000BF3846FFF706FE00BF00BF00BF029AD8
:100810001168052212028A18106900BF01467D2264
:10082000D2016243CA4000BF1546012003462A4652
:1008300000210090029800F01BFBFEBD950800000F
:10084000FEB506460024104903C90291019001201B
:10085000694648710D4A01A9304600F029FB04465B
:1008600000BF2546002D04D000BF2846FFF7D2FD6B
:1008700000BF00BF00200123054A0146009030461A
:1008800000F0F6FAFEBD000004130000D5120000CF
:10089000A086010070B504460D462046FF38413859
:1008A00000280ED108494868002100F099FA06494D
:1008B000C860486800F0A8FA0349486800F0C8FA20
:1008C00000E000BF00BF70BD1400002001B505E0CE
:1008D0000098401E00900348FFF7FCFB009800289A
:1008E000F6D108BDE703000070B504460D46294661
:1008F0002046FFF7F3FC00BFE106C90E0120884047
:100900000549086000BF00BFE106C90E012088400C
:100910000249086000BF70BD80E200E000E100E035
:1009200001460803020E50B2704770B504462046D7
:10093000FFF7DCFD8000FF30013085B2284600F073
:100940008FFB70BDFEB505460E46284600F0DAFB6B
:10095000002820D02846FFF7C9FD001F28490F5C5A
:10096000BC11032C0CD100BF264800690121A9400D
:100970000840002801D0032000E00220019005E09B
:10098000012C01D1022000E00320019028460199AA
:1009900000F02AFB32E0284600F0C0FB00282DD0F2
:1009A0002846FFF7A3FD0446A000FF30013080B2C7
:1009B0000190204614495122120189188200895859
:1009C00001221143104A51231B01D2188300D15038
:1009D00000BF019800F04AFB002E0ED02846FFF71A
:1009E00085FD0090FFF73EFD0746002F04D0012152
:1009F000A140084600F04EFB00BF00BFFEBD000056
:100A0000600000200005005000600040F7B584B091
:100A100004460E4600200390204600F065FB0028A7
:100A200002D00820039060E0F27820460699FFF794
:100A300021FD0546681C002854D0B078002810D04D
:100A400000BFA1002A4A891809680222914308467A
:100A500005210907072212028918A200885000BF49
:100A60000BE07778002000903B460246014601905B
:100A7000204600F08EFA00BF00BFF078002826D094
:100A800037781C48512109014018A90040581A49DB
:100A900008401849512212018918AA0088501548A7
:100AA000512109014018A900415820021F221202B9
:100AB00010403A0403231B041A40104301430D481D
:100AC000512212018018AA00815000BF0CE0281F9B
:100AD0000A49085C31788901084342B2281F074956
:100AE0000A5401E00420039000BF039807B0F0BD52
:100AF0000007005000600040FFE0FCFF60000020A5
:100B000010B51248407D002801D0082010BD0024F7
:100B100004E0204600F012FB601CC4B2202CF8DB7D
:100B2000002404E02046FFF78DFC601CC4B2052CB5
:100B3000F8DB03210620FFF7D7FE0120C00700F0F5
:100B4000A9FA0121014841750020DFE74C0000208F
:100B5000FEB504460E46002002902046364909564E
:100B6000491C002901D0012100E00021002902D008
:100B7000082002905DE0B07800283AD001220021E0
:100B80002046FFF777FC0546681C00282ED03778F2
:100B9000727801922948512109014018A900405852
:100BA000274908402549512212018918AA00885076
:100BB0002248512109014018A900415820021F2252
:100BC000120210403A0403231B041A401043019AF6
:100BD000120501231B051A401043014317485122F7
:100BE00012018018AA00815000BF01E00420029089
:100BF00006E000BF0121C9430F48015500BF00BFF7
:100C00000298002815D17078012803D1204600F001
:100C10001FFA02E0204600F00BFA00BF002000900F
:100C20000346012211460190204600F0B2F900BFB0
:100C300000BF0298FEBD00004000002000600040A0
:100C4000FFE0ECFF70B505462846FFF74FFC800635
:100C5000040E204601494118084670BD006000405E
:100C600030B501460E4A505683000E4C1B191B69C5
:100C7000032423431A461F231B0213430A4C512506
:100C80002D0164198500635100BF00BF00BF064BF2
:100C9000512424011B1984001A5100BF30BD0000EB
:100CA000400000200065004000600040F8B50646A6
:100CB00000250427164D002425E0FFF71DFC2046E3
:100CC00000F07CF82840002810D02046FFF760FC98
:100CD00000280BD100BF204600F070F80D490968CC
:100CE00008430C49086000BF34700027FFF70EFC72
:100CF000002F00D109E0204600F060F8294681432A
:100D00000D46601CC4B2002DD7D100BF3846F8BDD7
:100D1000FFFF00000800002070B506460C4615468F
:100D200000BF002C01D10E2070BD00BF00BF002D00
:100D300001D10E20F8E700BF3046FFF795FC0028F0
:100D400001D10720F0E73046FFF722FC002801D14F
:100D50000820E9E700BF0848512109014018F100C7
:100D600044500548512109014018F10040184560E0
:100D700000BF0020D8E7000000F0014010B5044695
:100D80002046FFF715FC002801D1072010BD2046A2
:100D9000FFF76AFC002806D02046FFF7F9FB002881
:100DA00001D10820F2E700BF0120A04002494860BD
:100DB00000BF0020EAE7000000F5014001460120E5
:100DC0008840704705490978002904D10121034A68
:100DD0001170002000E08520704700000400002012
:100DE00070B505460C4600BFA0004030C0B20646B4
:100DF0003146286800F074F92868A1001522920194
:100E000082185158084670BD10B504460C21206860
:100E100000F066F910BDF8B505460C4616461F46AB
:100E2000204600F043F90090002F04D02868009974
:100E300000F049F903E02868009900F03FF92B68B9
:100E4000A100152292019818465000BFF8BD00007D
:100E500010B504460021206800F042F902212079F3
:100E60000C225043014A8018017210BD640000201A
:100E7000F8B505460E4617461C46FF220132B24021
:100E80000123B3401A431146286800F021F928686D
:100E9000012149020958214301225202115000BF89
:100EA0003A4631462846069BFFF7B5FFF8BD0000DD
:100EB000F7B582B004460D4620790C2148433049ED
:100EC0004618307A002802D0082005B0F0BD0498FA
:100ED000002801D10720F8E7002D03D12079C000B8
:100EE000284945180498306068687060002709E058
:100EF000384600F0D5F801902068019900F0DBF841
:100F0000781CC7B26079B842F2DC2068FFF708FDB0
:100F10000190E978FFF7E8FC697820680522120261
:100F20008218526852085200CB07DB0F1A43052380
:100F30001B02C3185A6000BFA9782068052212025C
:100F400082189268920892008B079B0F1A43052320
:100F50001B02C3189A6000BF29782068052212027C
:100F600082181269120912010B071B0F1A4305237D
:100F70001B02C3181A6100BF012030720020A4E7D1
:100F8000640000200C130000024610684318184645
:100F90007047F0B5059C55000D439E003543260271
:100FA0003543069E360435430526360707273F029C
:100FB000F6198700F551F0BDF8B501210A46002366
:100FC0001F46009354000C439D002C433D022C43CC
:100FD000009D2D042C4305252D0707263602AD194B
:100FE0008600AC5100BFF8BD10B5052212070723DB
:100FF0001B02D2188300D25803231B049A430523F3
:101000001B07072424021B1984001A51052212070A
:1010100007231B02D2188300D2580B041A4305235E
:101020001B07072424021B1984001A5110BD00005D
:1010300001218140014AD160704700000005005045
:1010400001218140014A9160704700000005005075
:1010500001218140014A9160704700000005005065
:1010600001460148081870470060004010B504466A
:101070002046FFF7F5FF0021016010BD10B50446C2
:101080002046FFF7EDFF0068012800D110BD0020C9
:10109000FCE7000001494860704700000063004021
:1010A00001468800FF30413080B270470146012080
:1010B0000004884070470022425070470322120209
:1010C00082189160704703221202821851607047A3
:1010D0000122520212588A4301235B021A507047C0
:1010E0000122425070470000014605484056C01793
:1010F000401C002801D0012070470020FCE70000C0
:1011000040000020014604484056042801DB01202D
:1011100070470020FCE70000400000200146064820
:101120004056002805DB04484056042801DA012017
:1011300070470020FCE70000400000200022D2435E
:1011400001490A547047000040000020F0B585B006
:10115000054601A8FFF7AAFD044600BF2746002F59
:1011600004D000BF3846FFF755F900BF00BF082183
:101170006868FFF709FF0290287AFFF7D6FB039013
:1011800068460079029A0399FFF7C6FD044600BF3E
:101190002746002F04D000BF3846FFF73BF900BFB9
:1011A00000BF6846FFF782FD044600BF2746002FB8
:1011B00004D000BF3846FFF72DF900BF00BF04215F
:1011C0006868FFF7E1FE0490FF20413029680A6853
:1011D000161800BF00BF314668460078049AFFF732
:1011E0009BFD044600BF2746002F04D000BF3846B1
:1011F000FFF710F900BF00BF68460078FFF7BEFD9B
:10120000044600BF2746002F04D000BF3846FFF732
:1012100001F900BF00BF68460079FFF7AFFD044643
:1012200000BF2746002F04D000BF3846FFF7F2F872
:1012300000BF00BF05B0F0BDFEB5054624480068FC
:10124000009069460020FFF783FC044600BF264655
:10125000002E04D000BF3046FFF7DCF800BF00BF0F
:1012600001A8FFF723FD044600BF2646002E04D048
:1012700000BF3046FFF7CEF800BF00BF287AFFF767
:1012800054FB07460020FFF7DDFC02903946684614
:101290000079029AFFF740FD044600BF2646002E63
:1012A00004D000BF3046FFF7B5F800BF00BF684666
:1012B0000079FFF763FD044600BF2646002E04D0E8
:1012C00000BF3046FFF7A6F800BF00BFFEBD00001C
:1012D000001300007047000010B504462046FFF7D9
:1012E000B7FD01200149087510BD00001400002061
:1012F0000090004001040000008000400004000055
:1013000003000100000003020000000000000302CF
:101310000000000000000301000000003C1300007A
:101320000000002014000000BC0300005013000067
:10133000140000206C080000CC0300000024F4001E
:10134000000000000000000000000000000000009D
:04000005000000C136
:00000001FF
